{
  "abi": [
    {
      "inputs": [
        {
          "internalType": "address",
          "name": "_oracle",
          "type": "address"
        },
        {
          "internalType": "bytes32",
          "name": "_jobId",
          "type": "bytes32"
        },
        {
          "internalType": "uint256",
          "name": "_fee",
          "type": "uint256"
        },
        {
          "internalType": "address",
          "name": "_link",
          "type": "address"
        }
      ],
      "stateMutability": "nonpayable",
      "type": "constructor"
    },
    {
      "anonymous": false,
      "inputs": [
        {
          "indexed": true,
          "internalType": "bytes32",
          "name": "id",
          "type": "bytes32"
        }
      ],
      "name": "ChainlinkCancelled",
      "type": "event"
    },
    {
      "anonymous": false,
      "inputs": [
        {
          "indexed": true,
          "internalType": "bytes32",
          "name": "id",
          "type": "bytes32"
        }
      ],
      "name": "ChainlinkFulfilled",
      "type": "event"
    },
    {
      "anonymous": false,
      "inputs": [
        {
          "indexed": true,
          "internalType": "bytes32",
          "name": "id",
          "type": "bytes32"
        }
      ],
      "name": "ChainlinkRequested",
      "type": "event"
    },
    {
      "anonymous": false,
      "inputs": [
        {
          "indexed": false,
          "internalType": "uint256",
          "name": "volume",
          "type": "uint256"
        }
      ],
      "name": "DataFullfilled",
      "type": "event"
    },
    {
      "inputs": [],
      "name": "fee",
      "outputs": [
        {
          "internalType": "uint256",
          "name": "",
          "type": "uint256"
        }
      ],
      "stateMutability": "view",
      "type": "function"
    },
    {
      "inputs": [
        {
          "internalType": "bytes32",
          "name": "_requestId",
          "type": "bytes32"
        },
        {
          "internalType": "uint256",
          "name": "_volume",
          "type": "uint256"
        }
      ],
      "name": "fulfill",
      "outputs": [],
      "stateMutability": "nonpayable",
      "type": "function"
    },
    {
      "inputs": [],
      "name": "jobId",
      "outputs": [
        {
          "internalType": "bytes32",
          "name": "",
          "type": "bytes32"
        }
      ],
      "stateMutability": "view",
      "type": "function"
    },
    {
      "inputs": [],
      "name": "oracle",
      "outputs": [
        {
          "internalType": "address",
          "name": "",
          "type": "address"
        }
      ],
      "stateMutability": "view",
      "type": "function"
    },
    {
      "inputs": [],
      "name": "requestVolumeData",
      "outputs": [
        {
          "internalType": "bytes32",
          "name": "requestId",
          "type": "bytes32"
        }
      ],
      "stateMutability": "nonpayable",
      "type": "function"
    },
    {
      "inputs": [],
      "name": "volume",
      "outputs": [
        {
          "internalType": "uint256",
          "name": "",
          "type": "uint256"
        }
      ],
      "stateMutability": "view",
      "type": "function"
    }
  ],
  "bytecode": "608060405260016004553480156200001657600080fd5b506040516200101038038062001010833981016040819052620000399162000189565b6001600160a01b03811662000058576200005262000091565b62000063565b620000638162000126565b50600780546001600160a01b0319166001600160a01b039490941693909317909255600855600955620001d3565b6200012473c89bd4e1632d3a43cb03aaad5262cbe4038bc5716001600160a01b03166338cc48316040518163ffffffff1660e01b815260040160206040518083038186803b158015620000e357600080fd5b505afa158015620000f8573d6000803e3d6000fd5b505050506040513d601f19601f820116820180604052508101906200011e919062000165565b62000126565b565b600280546001600160a01b0319166001600160a01b0392909216919091179055565b80516001600160a01b03811681146200016057600080fd5b919050565b60006020828403121562000177578081fd5b620001828262000148565b9392505050565b600080600080608085870312156200019f578283fd5b620001aa8562000148565b93506020850151925060408501519150620001c86060860162000148565b905092959194509250565b610e2d80620001e36000396000f3fe608060405234801561001057600080fd5b50600436106100625760003560e01c80634357855e146100675780636021abac1461007c5780637dc0d1d01461009a578063c2939d97146100af578063c618a1e4146100b7578063ddca3f43146100bf575b600080fd5b61007a610075366004610a09565b6100c7565b005b61008461018d565b6040516100919190610b43565b60405180910390f35b6100a26102a0565b6040516100919190610a97565b6100846102af565b6100846102b5565b6100846102bb565b60008281526005602052604090205482906001600160a01b031633146101085760405162461bcd60e51b81526004016100ff90610b8f565b60405180910390fd5b60008181526005602052604080822080546001600160a01b03191690555182917f7cc135e0cebb02c3480ae5d74d377283180a2601f8f644edf7987b009316c63a91a260068290556040517f221d507243adddffe789060be0e69bff4be830996c6b265bfda5083d86f8863290610180908490610b43565b60405180910390a1505050565b6000806101a460085430634357855e60e01b6102c1565b90506101e66040518060400160405280600381526020016219d95d60ea1b815250604051806080016040528060498152602001610daf604991398391906102e8565b61024c604051806040016040528060048152602001630e0c2e8d60e31b8152506040518060400160405280601881526020017f5241572c4554482c5553442c564f4c554d453234484f55520000000000000000815250836102e89092919063ffffffff16565b60408051808201909152600581526474696d657360d81b6020820152670de0b6b3a76400009061027e9083908361030b565b600754600954610299916001600160a01b0316908490610329565b9250505090565b6007546001600160a01b031681565b60085481565b60065481565b60095481565b6102c961099a565b6102d161099a565b6102dd81868686610348565b9150505b9392505050565b60808301516102f79083610385565b60808301516103069082610385565b505050565b608083015161031a9083610385565b6080830151610306908261039c565b600061034084848460016320214ca360e11b610405565b949350505050565b61035061099a565b61036085608001516101006105c0565b50509183526001600160a01b031660208301526001600160e01b031916604082015290565b610392826003835161061e565b61030682826106f8565b67ffffffffffffffff198112156103bc576103b78282610712565b610401565b67ffffffffffffffff8113156103d6576103b78282610752565b600081126103ea576103b78260008361061e565b6104018260016103fc84600019610d22565b61061e565b5050565b60003060045460405160200161041c929190610a75565b60408051808303601f19018152918152815160209283012060045460608901526000818152600590935281832080546001600160a01b0319166001600160a01b038b16179055905190925082917fb5e6e01e79f91267dc17b4e6314d5d4d03593d2ceee0fbb452b750bd70ea5af991a2600082600080886000015189602001518a604001518b606001518a8d60800151600001516040516024016104c7989796959493929190610aab565b60408051601f198184030181529181526020820180516001600160e01b03166001600160e01b0319909416939093179092526002549151630200057560e51b81529092506001600160a01b0390911690634000aea09061052f908a9089908690600401610b13565b602060405180830381600087803b15801561054957600080fd5b505af115801561055d573d6000803e3d6000fd5b505050506040513d601f19601f8201168201806040525081019061058191906109e9565b61059d5760405162461bcd60e51b81526004016100ff90610b4c565b6001600460008282546105b09190610bd7565b9091555091979650505050505050565b6105c86109cf565b6105d3602083610d78565b156105fb576105e3602083610d78565b6105ee906020610d61565b6105f89083610bd7565b91505b506020808301829052604080518085526000815283019091019052815b92915050565b6017811161063f576106398360e0600585901b168317610773565b50610306565b60ff81116106695761065c836018611fe0600586901b1617610773565b506106398382600161078b565b61ffff811161069457610687836019611fe0600586901b1617610773565b506106398382600261078b565b63ffffffff81116106c1576106b483601a611fe0600586901b1617610773565b506106398382600461078b565b67ffffffffffffffff8111610306576106e583601b611fe0600586901b1617610773565b506106f28382600861078b565b50505050565b6107006109cf565b6102e1838460000151518485516107a4565b61071d8260c3610773565b506104018261072e83600019610d22565b60405160200161073e9190610b43565b60405160208183030381529060405261089c565b61075d8260c2610773565b50610401828260405160200161073e9190610b43565b61077b6109cf565b6102e183846000015151846108a9565b6107936109cf565b6103408485600001515185856108f8565b6107ac6109cf565b82518211156107ba57600080fd5b60208501516107c98386610bd7565b11156107fc576107fc856107ec876020015187866107e79190610bd7565b61096c565b6107f7906002610d03565b610983565b60008086518051876020830101935080888701111561081b5787860182525b505050602084015b6020841061085b578051825261083a602083610bd7565b9150610847602082610bd7565b9050610854602085610d61565b9350610823565b6000600161086a866020610d61565b61087690610100610c35565b6108809190610d61565b9151835183169219169190911790915250849050949350505050565b610392826002835161061e565b6108b16109cf565b836020015183106108d1576108d184856020015160026107f79190610d03565b8351805160208583010184815350808514156108ee576001810182525b5093949350505050565b6109006109cf565b602085015161090f8584610bd7565b111561092357610923856107ec8685610bd7565b6000600161093384610100610c35565b61093d9190610d61565b90508551838682010185831982511617815250805184870111156109615783860181525b509495945050505050565b60008183111561097d575081610618565b50919050565b815161098f83836105c0565b506106f283826106f8565b6040805160a0810182526000808252602082018190529181018290526060810191909152608081016109ca6109cf565b905290565b604051806040016040528060608152602001600081525090565b6000602082840312156109fa578081fd5b815180151581146102e1578182fd5b60008060408385031215610a1b578081fd5b50508035926020909101359150565b60008151808452815b81811015610a4f57602081850181015186830182015201610a33565b81811115610a605782602083870101525b50601f01601f19169290920160200192915050565b60609290921b6bffffffffffffffffffffffff19168252601482015260340190565b6001600160a01b0391909116815260200190565b6001600160a01b0389811682526020820189905260408201889052861660608201526001600160e01b03198516608082015260a0810184905260c0810183905261010060e08201819052600090610b0483820185610a2a565b9b9a5050505050505050505050565b600060018060a01b038516825283602083015260606040830152610b3a6060830184610a2a565b95945050505050565b90815260200190565b60208082526023908201527f756e61626c6520746f207472616e73666572416e6443616c6c20746f206f7261604082015262636c6560e81b606082015260800190565b60208082526028908201527f536f75726365206d75737420626520746865206f7261636c65206f6620746865604082015267081c995c5d595cdd60c21b606082015260800190565b60008219821115610bea57610bea610d98565b500190565b80825b6001808611610c015750610c2c565b818704821115610c1357610c13610d98565b80861615610c2057918102915b9490941c938002610bf2565b94509492505050565b60006102e16000198484600082610c4e575060016102e1565b81610c5b575060006102e1565b8160018114610c715760028114610c7b57610ca8565b60019150506102e1565b60ff841115610c8c57610c8c610d98565b6001841b915084821115610ca257610ca2610d98565b506102e1565b5060208310610133831016604e8410600b8410161715610cdb575081810a83811115610cd657610cd6610d98565b6102e1565b610ce88484846001610bef565b808604821115610cfa57610cfa610d98565b02949350505050565b6000816000190483118215151615610d1d57610d1d610d98565b500290565b60008083128015600160ff1b850184121615610d4057610d40610d98565b6001600160ff1b0384018313811615610d5b57610d5b610d98565b50500390565b600082821015610d7357610d73610d98565b500390565b600082610d9357634e487b7160e01b81526012600452602481fd5b500690565b634e487b7160e01b600052601160045260246000fdfe68747470733a2f2f6d696e2d6170692e63727970746f636f6d706172652e636f6d2f646174612f70726963656d756c746966756c6c3f6673796d733d455448267473796d733d555344a2646970667358221220799dd05fe844994ac8f22e9b70cdd19e9d1664248d6a4857b1c523ec74cf49a264736f6c63430008000033",
  "bytecodeSha1": "ca0855f99670bc2f75afcff7f4b1f475e192c175",
  "compiler": {
    "evm_version": "istanbul",
    "optimizer": {
      "enabled": true,
      "runs": 200
    },
    "version": "0.8.0+commit.c7dfd78e"
  },
  "contractName": "APIConsumer",
  "language": "Solidity",
  "natspec": {
    "kind": "dev",
    "methods": {
      "fulfill(bytes32,uint256)": {
        "notice": "Receive the response in the form of uint256"
      },
      "requestVolumeData()": {
        "notice": "Create a Chainlink request to retrieve API response, find the target data, then multiply by 1000000000000000000 (to remove decimal places from data)."
      }
    },
    "version": 1
  },
  "opcodes": "PUSH1 0x80 PUSH1 0x40 MSTORE CALLVALUE DUP1 ISZERO PUSH2 0x10 JUMPI PUSH1 0x0 DUP1 REVERT JUMPDEST POP PUSH1 0x4 CALLDATASIZE LT PUSH2 0x62 JUMPI PUSH1 0x0 CALLDATALOAD PUSH1 0xE0 SHR DUP1 PUSH4 0x4357855E EQ PUSH2 0x67 JUMPI DUP1 PUSH4 0x6021ABAC EQ PUSH2 0x7C JUMPI DUP1 PUSH4 0x7DC0D1D0 EQ PUSH2 0x9A JUMPI DUP1 PUSH4 0xC2939D97 EQ PUSH2 0xAF JUMPI DUP1 PUSH4 0xC618A1E4 EQ PUSH2 0xB7 JUMPI DUP1 PUSH4 0xDDCA3F43 EQ PUSH2 0xBF JUMPI JUMPDEST PUSH1 0x0 DUP1 REVERT JUMPDEST PUSH2 0x7A PUSH2 0x75 CALLDATASIZE PUSH1 0x4 PUSH2 0xA09 JUMP JUMPDEST PUSH2 0xC7 JUMP JUMPDEST STOP JUMPDEST PUSH2 0x84 PUSH2 0x18D JUMP JUMPDEST PUSH1 0x40 MLOAD PUSH2 0x91 SWAP2 SWAP1 PUSH2 0xB43 JUMP JUMPDEST PUSH1 0x40 MLOAD DUP1 SWAP2 SUB SWAP1 RETURN JUMPDEST PUSH2 0xA2 PUSH2 0x2A0 JUMP JUMPDEST PUSH1 0x40 MLOAD PUSH2 0x91 SWAP2 SWAP1 PUSH2 0xA97 JUMP JUMPDEST PUSH2 0x84 PUSH2 0x2AF JUMP JUMPDEST PUSH2 0x84 PUSH2 0x2B5 JUMP JUMPDEST PUSH2 0x84 PUSH2 0x2BB JUMP JUMPDEST PUSH1 0x0 DUP3 DUP2 MSTORE PUSH1 0x5 PUSH1 0x20 MSTORE PUSH1 0x40 SWAP1 KECCAK256 SLOAD DUP3 SWAP1 PUSH1 0x1 PUSH1 0x1 PUSH1 0xA0 SHL SUB AND CALLER EQ PUSH2 0x108 JUMPI PUSH1 0x40 MLOAD PUSH3 0x461BCD PUSH1 0xE5 SHL DUP2 MSTORE PUSH1 0x4 ADD PUSH2 0xFF SWAP1 PUSH2 0xB8F JUMP JUMPDEST PUSH1 0x40 MLOAD DUP1 SWAP2 SUB SWAP1 REVERT JUMPDEST PUSH1 0x0 DUP2 DUP2 MSTORE PUSH1 0x5 PUSH1 0x20 MSTORE PUSH1 0x40 DUP1 DUP3 KECCAK256 DUP1 SLOAD PUSH1 0x1 PUSH1 0x1 PUSH1 0xA0 SHL SUB NOT AND SWAP1 SSTORE MLOAD DUP3 SWAP2 PUSH32 0x7CC135E0CEBB02C3480AE5D74D377283180A2601F8F644EDF7987B009316C63A SWAP2 LOG2 PUSH1 0x6 DUP3 SWAP1 SSTORE PUSH1 0x40 MLOAD PUSH32 0x221D507243ADDDFFE789060BE0E69BFF4BE830996C6B265BFDA5083D86F88632 SWAP1 PUSH2 0x180 SWAP1 DUP5 SWAP1 PUSH2 0xB43 JUMP JUMPDEST PUSH1 0x40 MLOAD DUP1 SWAP2 SUB SWAP1 LOG1 POP POP POP JUMP JUMPDEST PUSH1 0x0 DUP1 PUSH2 0x1A4 PUSH1 0x8 SLOAD ADDRESS PUSH4 0x4357855E PUSH1 0xE0 SHL PUSH2 0x2C1 JUMP JUMPDEST SWAP1 POP PUSH2 0x1E6 PUSH1 0x40 MLOAD DUP1 PUSH1 0x40 ADD PUSH1 0x40 MSTORE DUP1 PUSH1 0x3 DUP2 MSTORE PUSH1 0x20 ADD PUSH3 0x19D95D PUSH1 0xEA SHL DUP2 MSTORE POP PUSH1 0x40 MLOAD DUP1 PUSH1 0x80 ADD PUSH1 0x40 MSTORE DUP1 PUSH1 0x49 DUP2 MSTORE PUSH1 0x20 ADD PUSH2 0xDAF PUSH1 0x49 SWAP2 CODECOPY DUP4 SWAP2 SWAP1 PUSH2 0x2E8 JUMP JUMPDEST PUSH2 0x24C PUSH1 0x40 MLOAD DUP1 PUSH1 0x40 ADD PUSH1 0x40 MSTORE DUP1 PUSH1 0x4 DUP2 MSTORE PUSH1 0x20 ADD PUSH4 0xE0C2E8D PUSH1 0xE3 SHL DUP2 MSTORE POP PUSH1 0x40 MLOAD DUP1 PUSH1 0x40 ADD PUSH1 0x40 MSTORE DUP1 PUSH1 0x18 DUP2 MSTORE PUSH1 0x20 ADD PUSH32 0x5241572C4554482C5553442C564F4C554D453234484F55520000000000000000 DUP2 MSTORE POP DUP4 PUSH2 0x2E8 SWAP1 SWAP3 SWAP2 SWAP1 PUSH4 0xFFFFFFFF AND JUMP JUMPDEST PUSH1 0x40 DUP1 MLOAD DUP1 DUP3 ADD SWAP1 SWAP2 MSTORE PUSH1 0x5 DUP2 MSTORE PUSH5 0x74696D6573 PUSH1 0xD8 SHL PUSH1 0x20 DUP3 ADD MSTORE PUSH8 0xDE0B6B3A7640000 SWAP1 PUSH2 0x27E SWAP1 DUP4 SWAP1 DUP4 PUSH2 0x30B JUMP JUMPDEST PUSH1 0x7 SLOAD PUSH1 0x9 SLOAD PUSH2 0x299 SWAP2 PUSH1 0x1 PUSH1 0x1 PUSH1 0xA0 SHL SUB AND SWAP1 DUP5 SWAP1 PUSH2 0x329 JUMP JUMPDEST SWAP3 POP POP POP SWAP1 JUMP JUMPDEST PUSH1 0x7 SLOAD PUSH1 0x1 PUSH1 0x1 PUSH1 0xA0 SHL SUB AND DUP2 JUMP JUMPDEST PUSH1 0x8 SLOAD DUP2 JUMP JUMPDEST PUSH1 0x6 SLOAD DUP2 JUMP JUMPDEST PUSH1 0x9 SLOAD DUP2 JUMP JUMPDEST PUSH2 0x2C9 PUSH2 0x99A JUMP JUMPDEST PUSH2 0x2D1 PUSH2 0x99A JUMP JUMPDEST PUSH2 0x2DD DUP2 DUP7 DUP7 DUP7 PUSH2 0x348 JUMP JUMPDEST SWAP2 POP POP JUMPDEST SWAP4 SWAP3 POP POP POP JUMP JUMPDEST PUSH1 0x80 DUP4 ADD MLOAD PUSH2 0x2F7 SWAP1 DUP4 PUSH2 0x385 JUMP JUMPDEST PUSH1 0x80 DUP4 ADD MLOAD PUSH2 0x306 SWAP1 DUP3 PUSH2 0x385 JUMP JUMPDEST POP POP POP JUMP JUMPDEST PUSH1 0x80 DUP4 ADD MLOAD PUSH2 0x31A SWAP1 DUP4 PUSH2 0x385 JUMP JUMPDEST PUSH1 0x80 DUP4 ADD MLOAD PUSH2 0x306 SWAP1 DUP3 PUSH2 0x39C JUMP JUMPDEST PUSH1 0x0 PUSH2 0x340 DUP5 DUP5 DUP5 PUSH1 0x1 PUSH4 0x20214CA3 PUSH1 0xE1 SHL PUSH2 0x405 JUMP JUMPDEST SWAP5 SWAP4 POP POP POP POP JUMP JUMPDEST PUSH2 0x350 PUSH2 0x99A JUMP JUMPDEST PUSH2 0x360 DUP6 PUSH1 0x80 ADD MLOAD PUSH2 0x100 PUSH2 0x5C0 JUMP JUMPDEST POP POP SWAP2 DUP4 MSTORE PUSH1 0x1 PUSH1 0x1 PUSH1 0xA0 SHL SUB AND PUSH1 0x20 DUP4 ADD MSTORE PUSH1 0x1 PUSH1 0x1 PUSH1 0xE0 SHL SUB NOT AND PUSH1 0x40 DUP3 ADD MSTORE SWAP1 JUMP JUMPDEST PUSH2 0x392 DUP3 PUSH1 0x3 DUP4 MLOAD PUSH2 0x61E JUMP JUMPDEST PUSH2 0x306 DUP3 DUP3 PUSH2 0x6F8 JUMP JUMPDEST PUSH8 0xFFFFFFFFFFFFFFFF NOT DUP2 SLT ISZERO PUSH2 0x3BC JUMPI PUSH2 0x3B7 DUP3 DUP3 PUSH2 0x712 JUMP JUMPDEST PUSH2 0x401 JUMP JUMPDEST PUSH8 0xFFFFFFFFFFFFFFFF DUP2 SGT ISZERO PUSH2 0x3D6 JUMPI PUSH2 0x3B7 DUP3 DUP3 PUSH2 0x752 JUMP JUMPDEST PUSH1 0x0 DUP2 SLT PUSH2 0x3EA JUMPI PUSH2 0x3B7 DUP3 PUSH1 0x0 DUP4 PUSH2 0x61E JUMP JUMPDEST PUSH2 0x401 DUP3 PUSH1 0x1 PUSH2 0x3FC DUP5 PUSH1 0x0 NOT PUSH2 0xD22 JUMP JUMPDEST PUSH2 0x61E JUMP JUMPDEST POP POP JUMP JUMPDEST PUSH1 0x0 ADDRESS PUSH1 0x4 SLOAD PUSH1 0x40 MLOAD PUSH1 0x20 ADD PUSH2 0x41C SWAP3 SWAP2 SWAP1 PUSH2 0xA75 JUMP JUMPDEST PUSH1 0x40 DUP1 MLOAD DUP1 DUP4 SUB PUSH1 0x1F NOT ADD DUP2 MSTORE SWAP2 DUP2 MSTORE DUP2 MLOAD PUSH1 0x20 SWAP3 DUP4 ADD KECCAK256 PUSH1 0x4 SLOAD PUSH1 0x60 DUP10 ADD MSTORE PUSH1 0x0 DUP2 DUP2 MSTORE PUSH1 0x5 SWAP1 SWAP4 MSTORE DUP2 DUP4 KECCAK256 DUP1 SLOAD PUSH1 0x1 PUSH1 0x1 PUSH1 0xA0 SHL SUB NOT AND PUSH1 0x1 PUSH1 0x1 PUSH1 0xA0 SHL SUB DUP12 AND OR SWAP1 SSTORE SWAP1 MLOAD SWAP1 SWAP3 POP DUP3 SWAP2 PUSH32 0xB5E6E01E79F91267DC17B4E6314D5D4D03593D2CEEE0FBB452B750BD70EA5AF9 SWAP2 LOG2 PUSH1 0x0 DUP3 PUSH1 0x0 DUP1 DUP9 PUSH1 0x0 ADD MLOAD DUP10 PUSH1 0x20 ADD MLOAD DUP11 PUSH1 0x40 ADD MLOAD DUP12 PUSH1 0x60 ADD MLOAD DUP11 DUP14 PUSH1 0x80 ADD MLOAD PUSH1 0x0 ADD MLOAD PUSH1 0x40 MLOAD PUSH1 0x24 ADD PUSH2 0x4C7 SWAP9 SWAP8 SWAP7 SWAP6 SWAP5 SWAP4 SWAP3 SWAP2 SWAP1 PUSH2 0xAAB JUMP JUMPDEST PUSH1 0x40 DUP1 MLOAD PUSH1 0x1F NOT DUP2 DUP5 SUB ADD DUP2 MSTORE SWAP2 DUP2 MSTORE PUSH1 0x20 DUP3 ADD DUP1 MLOAD PUSH1 0x1 PUSH1 0x1 PUSH1 0xE0 SHL SUB AND PUSH1 0x1 PUSH1 0x1 PUSH1 0xE0 SHL SUB NOT SWAP1 SWAP5 AND SWAP4 SWAP1 SWAP4 OR SWAP1 SWAP3 MSTORE PUSH1 0x2 SLOAD SWAP2 MLOAD PUSH4 0x2000575 PUSH1 0xE5 SHL DUP2 MSTORE SWAP1 SWAP3 POP PUSH1 0x1 PUSH1 0x1 PUSH1 0xA0 SHL SUB SWAP1 SWAP2 AND SWAP1 PUSH4 0x4000AEA0 SWAP1 PUSH2 0x52F SWAP1 DUP11 SWAP1 DUP10 SWAP1 DUP7 SWAP1 PUSH1 0x4 ADD PUSH2 0xB13 JUMP JUMPDEST PUSH1 0x20 PUSH1 0x40 MLOAD DUP1 DUP4 SUB DUP2 PUSH1 0x0 DUP8 DUP1 EXTCODESIZE ISZERO DUP1 ISZERO PUSH2 0x549 JUMPI PUSH1 0x0 DUP1 REVERT JUMPDEST POP GAS CALL ISZERO DUP1 ISZERO PUSH2 0x55D JUMPI RETURNDATASIZE PUSH1 0x0 DUP1 RETURNDATACOPY RETURNDATASIZE PUSH1 0x0 REVERT JUMPDEST POP POP POP POP PUSH1 0x40 MLOAD RETURNDATASIZE PUSH1 0x1F NOT PUSH1 0x1F DUP3 ADD AND DUP3 ADD DUP1 PUSH1 0x40 MSTORE POP DUP2 ADD SWAP1 PUSH2 0x581 SWAP2 SWAP1 PUSH2 0x9E9 JUMP JUMPDEST PUSH2 0x59D JUMPI PUSH1 0x40 MLOAD PUSH3 0x461BCD PUSH1 0xE5 SHL DUP2 MSTORE PUSH1 0x4 ADD PUSH2 0xFF SWAP1 PUSH2 0xB4C JUMP JUMPDEST PUSH1 0x1 PUSH1 0x4 PUSH1 0x0 DUP3 DUP3 SLOAD PUSH2 0x5B0 SWAP2 SWAP1 PUSH2 0xBD7 JUMP JUMPDEST SWAP1 SWAP2 SSTORE POP SWAP2 SWAP8 SWAP7 POP POP POP POP POP POP POP JUMP JUMPDEST PUSH2 0x5C8 PUSH2 0x9CF JUMP JUMPDEST PUSH2 0x5D3 PUSH1 0x20 DUP4 PUSH2 0xD78 JUMP JUMPDEST ISZERO PUSH2 0x5FB JUMPI PUSH2 0x5E3 PUSH1 0x20 DUP4 PUSH2 0xD78 JUMP JUMPDEST PUSH2 0x5EE SWAP1 PUSH1 0x20 PUSH2 0xD61 JUMP JUMPDEST PUSH2 0x5F8 SWAP1 DUP4 PUSH2 0xBD7 JUMP JUMPDEST SWAP2 POP JUMPDEST POP PUSH1 0x20 DUP1 DUP4 ADD DUP3 SWAP1 MSTORE PUSH1 0x40 DUP1 MLOAD DUP1 DUP6 MSTORE PUSH1 0x0 DUP2 MSTORE DUP4 ADD SWAP1 SWAP2 ADD SWAP1 MSTORE DUP2 JUMPDEST SWAP3 SWAP2 POP POP JUMP JUMPDEST PUSH1 0x17 DUP2 GT PUSH2 0x63F JUMPI PUSH2 0x639 DUP4 PUSH1 0xE0 PUSH1 0x5 DUP6 SWAP1 SHL AND DUP4 OR PUSH2 0x773 JUMP JUMPDEST POP PUSH2 0x306 JUMP JUMPDEST PUSH1 0xFF DUP2 GT PUSH2 0x669 JUMPI PUSH2 0x65C DUP4 PUSH1 0x18 PUSH2 0x1FE0 PUSH1 0x5 DUP7 SWAP1 SHL AND OR PUSH2 0x773 JUMP JUMPDEST POP PUSH2 0x639 DUP4 DUP3 PUSH1 0x1 PUSH2 0x78B JUMP JUMPDEST PUSH2 0xFFFF DUP2 GT PUSH2 0x694 JUMPI PUSH2 0x687 DUP4 PUSH1 0x19 PUSH2 0x1FE0 PUSH1 0x5 DUP7 SWAP1 SHL AND OR PUSH2 0x773 JUMP JUMPDEST POP PUSH2 0x639 DUP4 DUP3 PUSH1 0x2 PUSH2 0x78B JUMP JUMPDEST PUSH4 0xFFFFFFFF DUP2 GT PUSH2 0x6C1 JUMPI PUSH2 0x6B4 DUP4 PUSH1 0x1A PUSH2 0x1FE0 PUSH1 0x5 DUP7 SWAP1 SHL AND OR PUSH2 0x773 JUMP JUMPDEST POP PUSH2 0x639 DUP4 DUP3 PUSH1 0x4 PUSH2 0x78B JUMP JUMPDEST PUSH8 0xFFFFFFFFFFFFFFFF DUP2 GT PUSH2 0x306 JUMPI PUSH2 0x6E5 DUP4 PUSH1 0x1B PUSH2 0x1FE0 PUSH1 0x5 DUP7 SWAP1 SHL AND OR PUSH2 0x773 JUMP JUMPDEST POP PUSH2 0x6F2 DUP4 DUP3 PUSH1 0x8 PUSH2 0x78B JUMP JUMPDEST POP POP POP POP JUMP JUMPDEST PUSH2 0x700 PUSH2 0x9CF JUMP JUMPDEST PUSH2 0x2E1 DUP4 DUP5 PUSH1 0x0 ADD MLOAD MLOAD DUP5 DUP6 MLOAD PUSH2 0x7A4 JUMP JUMPDEST PUSH2 0x71D DUP3 PUSH1 0xC3 PUSH2 0x773 JUMP JUMPDEST POP PUSH2 0x401 DUP3 PUSH2 0x72E DUP4 PUSH1 0x0 NOT PUSH2 0xD22 JUMP JUMPDEST PUSH1 0x40 MLOAD PUSH1 0x20 ADD PUSH2 0x73E SWAP2 SWAP1 PUSH2 0xB43 JUMP JUMPDEST PUSH1 0x40 MLOAD PUSH1 0x20 DUP2 DUP4 SUB SUB DUP2 MSTORE SWAP1 PUSH1 0x40 MSTORE PUSH2 0x89C JUMP JUMPDEST PUSH2 0x75D DUP3 PUSH1 0xC2 PUSH2 0x773 JUMP JUMPDEST POP PUSH2 0x401 DUP3 DUP3 PUSH1 0x40 MLOAD PUSH1 0x20 ADD PUSH2 0x73E SWAP2 SWAP1 PUSH2 0xB43 JUMP JUMPDEST PUSH2 0x77B PUSH2 0x9CF JUMP JUMPDEST PUSH2 0x2E1 DUP4 DUP5 PUSH1 0x0 ADD MLOAD MLOAD DUP5 PUSH2 0x8A9 JUMP JUMPDEST PUSH2 0x793 PUSH2 0x9CF JUMP JUMPDEST PUSH2 0x340 DUP5 DUP6 PUSH1 0x0 ADD MLOAD MLOAD DUP6 DUP6 PUSH2 0x8F8 JUMP JUMPDEST PUSH2 0x7AC PUSH2 0x9CF JUMP JUMPDEST DUP3 MLOAD DUP3 GT ISZERO PUSH2 0x7BA JUMPI PUSH1 0x0 DUP1 REVERT JUMPDEST PUSH1 0x20 DUP6 ADD MLOAD PUSH2 0x7C9 DUP4 DUP7 PUSH2 0xBD7 JUMP JUMPDEST GT ISZERO PUSH2 0x7FC JUMPI PUSH2 0x7FC DUP6 PUSH2 0x7EC DUP8 PUSH1 0x20 ADD MLOAD DUP8 DUP7 PUSH2 0x7E7 SWAP2 SWAP1 PUSH2 0xBD7 JUMP JUMPDEST PUSH2 0x96C JUMP JUMPDEST PUSH2 0x7F7 SWAP1 PUSH1 0x2 PUSH2 0xD03 JUMP JUMPDEST PUSH2 0x983 JUMP JUMPDEST PUSH1 0x0 DUP1 DUP7 MLOAD DUP1 MLOAD DUP8 PUSH1 0x20 DUP4 ADD ADD SWAP4 POP DUP1 DUP9 DUP8 ADD GT ISZERO PUSH2 0x81B JUMPI DUP8 DUP7 ADD DUP3 MSTORE JUMPDEST POP POP POP PUSH1 0x20 DUP5 ADD JUMPDEST PUSH1 0x20 DUP5 LT PUSH2 0x85B JUMPI DUP1 MLOAD DUP3 MSTORE PUSH2 0x83A PUSH1 0x20 DUP4 PUSH2 0xBD7 JUMP JUMPDEST SWAP2 POP PUSH2 0x847 PUSH1 0x20 DUP3 PUSH2 0xBD7 JUMP JUMPDEST SWAP1 POP PUSH2 0x854 PUSH1 0x20 DUP6 PUSH2 0xD61 JUMP JUMPDEST SWAP4 POP PUSH2 0x823 JUMP JUMPDEST PUSH1 0x0 PUSH1 0x1 PUSH2 0x86A DUP7 PUSH1 0x20 PUSH2 0xD61 JUMP JUMPDEST PUSH2 0x876 SWAP1 PUSH2 0x100 PUSH2 0xC35 JUMP JUMPDEST PUSH2 0x880 SWAP2 SWAP1 PUSH2 0xD61 JUMP JUMPDEST SWAP2 MLOAD DUP4 MLOAD DUP4 AND SWAP3 NOT AND SWAP2 SWAP1 SWAP2 OR SWAP1 SWAP2 MSTORE POP DUP5 SWAP1 POP SWAP5 SWAP4 POP POP POP POP JUMP JUMPDEST PUSH2 0x392 DUP3 PUSH1 0x2 DUP4 MLOAD PUSH2 0x61E JUMP JUMPDEST PUSH2 0x8B1 PUSH2 0x9CF JUMP JUMPDEST DUP4 PUSH1 0x20 ADD MLOAD DUP4 LT PUSH2 0x8D1 JUMPI PUSH2 0x8D1 DUP5 DUP6 PUSH1 0x20 ADD MLOAD PUSH1 0x2 PUSH2 0x7F7 SWAP2 SWAP1 PUSH2 0xD03 JUMP JUMPDEST DUP4 MLOAD DUP1 MLOAD PUSH1 0x20 DUP6 DUP4 ADD ADD DUP5 DUP2 MSTORE8 POP DUP1 DUP6 EQ ISZERO PUSH2 0x8EE JUMPI PUSH1 0x1 DUP2 ADD DUP3 MSTORE JUMPDEST POP SWAP4 SWAP5 SWAP4 POP POP POP POP JUMP JUMPDEST PUSH2 0x900 PUSH2 0x9CF JUMP JUMPDEST PUSH1 0x20 DUP6 ADD MLOAD PUSH2 0x90F DUP6 DUP5 PUSH2 0xBD7 JUMP JUMPDEST GT ISZERO PUSH2 0x923 JUMPI PUSH2 0x923 DUP6 PUSH2 0x7EC DUP7 DUP6 PUSH2 0xBD7 JUMP JUMPDEST PUSH1 0x0 PUSH1 0x1 PUSH2 0x933 DUP5 PUSH2 0x100 PUSH2 0xC35 JUMP JUMPDEST PUSH2 0x93D SWAP2 SWAP1 PUSH2 0xD61 JUMP JUMPDEST SWAP1 POP DUP6 MLOAD DUP4 DUP7 DUP3 ADD ADD DUP6 DUP4 NOT DUP3 MLOAD AND OR DUP2 MSTORE POP DUP1 MLOAD DUP5 DUP8 ADD GT ISZERO PUSH2 0x961 JUMPI DUP4 DUP7 ADD DUP2 MSTORE JUMPDEST POP SWAP5 SWAP6 SWAP5 POP POP POP POP POP JUMP JUMPDEST PUSH1 0x0 DUP2 DUP4 GT ISZERO PUSH2 0x97D JUMPI POP DUP2 PUSH2 0x618 JUMP JUMPDEST POP SWAP2 SWAP1 POP JUMP JUMPDEST DUP2 MLOAD PUSH2 0x98F DUP4 DUP4 PUSH2 0x5C0 JUMP JUMPDEST POP PUSH2 0x6F2 DUP4 DUP3 PUSH2 0x6F8 JUMP JUMPDEST PUSH1 0x40 DUP1 MLOAD PUSH1 0xA0 DUP2 ADD DUP3 MSTORE PUSH1 0x0 DUP1 DUP3 MSTORE PUSH1 0x20 DUP3 ADD DUP2 SWAP1 MSTORE SWAP2 DUP2 ADD DUP3 SWAP1 MSTORE PUSH1 0x60 DUP2 ADD SWAP2 SWAP1 SWAP2 MSTORE PUSH1 0x80 DUP2 ADD PUSH2 0x9CA PUSH2 0x9CF JUMP JUMPDEST SWAP1 MSTORE SWAP1 JUMP JUMPDEST PUSH1 0x40 MLOAD DUP1 PUSH1 0x40 ADD PUSH1 0x40 MSTORE DUP1 PUSH1 0x60 DUP2 MSTORE PUSH1 0x20 ADD PUSH1 0x0 DUP2 MSTORE POP SWAP1 JUMP JUMPDEST PUSH1 0x0 PUSH1 0x20 DUP3 DUP5 SUB SLT ISZERO PUSH2 0x9FA JUMPI DUP1 DUP2 REVERT JUMPDEST DUP2 MLOAD DUP1 ISZERO ISZERO DUP2 EQ PUSH2 0x2E1 JUMPI DUP2 DUP3 REVERT JUMPDEST PUSH1 0x0 DUP1 PUSH1 0x40 DUP4 DUP6 SUB SLT ISZERO PUSH2 0xA1B JUMPI DUP1 DUP2 REVERT JUMPDEST POP POP DUP1 CALLDATALOAD SWAP3 PUSH1 0x20 SWAP1 SWAP2 ADD CALLDATALOAD SWAP2 POP JUMP JUMPDEST PUSH1 0x0 DUP2 MLOAD DUP1 DUP5 MSTORE DUP2 JUMPDEST DUP2 DUP2 LT ISZERO PUSH2 0xA4F JUMPI PUSH1 0x20 DUP2 DUP6 ADD DUP2 ADD MLOAD DUP7 DUP4 ADD DUP3 ADD MSTORE ADD PUSH2 0xA33 JUMP JUMPDEST DUP2 DUP2 GT ISZERO PUSH2 0xA60 JUMPI DUP3 PUSH1 0x20 DUP4 DUP8 ADD ADD MSTORE JUMPDEST POP PUSH1 0x1F ADD PUSH1 0x1F NOT AND SWAP3 SWAP1 SWAP3 ADD PUSH1 0x20 ADD SWAP3 SWAP2 POP POP JUMP JUMPDEST PUSH1 0x60 SWAP3 SWAP1 SWAP3 SHL PUSH12 0xFFFFFFFFFFFFFFFFFFFFFFFF NOT AND DUP3 MSTORE PUSH1 0x14 DUP3 ADD MSTORE PUSH1 0x34 ADD SWAP1 JUMP JUMPDEST PUSH1 0x1 PUSH1 0x1 PUSH1 0xA0 SHL SUB SWAP2 SWAP1 SWAP2 AND DUP2 MSTORE PUSH1 0x20 ADD SWAP1 JUMP JUMPDEST PUSH1 0x1 PUSH1 0x1 PUSH1 0xA0 SHL SUB DUP10 DUP2 AND DUP3 MSTORE PUSH1 0x20 DUP3 ADD DUP10 SWAP1 MSTORE PUSH1 0x40 DUP3 ADD DUP9 SWAP1 MSTORE DUP7 AND PUSH1 0x60 DUP3 ADD MSTORE PUSH1 0x1 PUSH1 0x1 PUSH1 0xE0 SHL SUB NOT DUP6 AND PUSH1 0x80 DUP3 ADD MSTORE PUSH1 0xA0 DUP2 ADD DUP5 SWAP1 MSTORE PUSH1 0xC0 DUP2 ADD DUP4 SWAP1 MSTORE PUSH2 0x100 PUSH1 0xE0 DUP3 ADD DUP2 SWAP1 MSTORE PUSH1 0x0 SWAP1 PUSH2 0xB04 DUP4 DUP3 ADD DUP6 PUSH2 0xA2A JUMP JUMPDEST SWAP12 SWAP11 POP POP POP POP POP POP POP POP POP POP POP JUMP JUMPDEST PUSH1 0x0 PUSH1 0x1 DUP1 PUSH1 0xA0 SHL SUB DUP6 AND DUP3 MSTORE DUP4 PUSH1 0x20 DUP4 ADD MSTORE PUSH1 0x60 PUSH1 0x40 DUP4 ADD MSTORE PUSH2 0xB3A PUSH1 0x60 DUP4 ADD DUP5 PUSH2 0xA2A JUMP JUMPDEST SWAP6 SWAP5 POP POP POP POP POP JUMP JUMPDEST SWAP1 DUP2 MSTORE PUSH1 0x20 ADD SWAP1 JUMP JUMPDEST PUSH1 0x20 DUP1 DUP3 MSTORE PUSH1 0x23 SWAP1 DUP3 ADD MSTORE PUSH32 0x756E61626C6520746F207472616E73666572416E6443616C6C20746F206F7261 PUSH1 0x40 DUP3 ADD MSTORE PUSH3 0x636C65 PUSH1 0xE8 SHL PUSH1 0x60 DUP3 ADD MSTORE PUSH1 0x80 ADD SWAP1 JUMP JUMPDEST PUSH1 0x20 DUP1 DUP3 MSTORE PUSH1 0x28 SWAP1 DUP3 ADD MSTORE PUSH32 0x536F75726365206D75737420626520746865206F7261636C65206F6620746865 PUSH1 0x40 DUP3 ADD MSTORE PUSH8 0x81C995C5D595CDD PUSH1 0xC2 SHL PUSH1 0x60 DUP3 ADD MSTORE PUSH1 0x80 ADD SWAP1 JUMP JUMPDEST PUSH1 0x0 DUP3 NOT DUP3 GT ISZERO PUSH2 0xBEA JUMPI PUSH2 0xBEA PUSH2 0xD98 JUMP JUMPDEST POP ADD SWAP1 JUMP JUMPDEST DUP1 DUP3 JUMPDEST PUSH1 0x1 DUP1 DUP7 GT PUSH2 0xC01 JUMPI POP PUSH2 0xC2C JUMP JUMPDEST DUP2 DUP8 DIV DUP3 GT ISZERO PUSH2 0xC13 JUMPI PUSH2 0xC13 PUSH2 0xD98 JUMP JUMPDEST DUP1 DUP7 AND ISZERO PUSH2 0xC20 JUMPI SWAP2 DUP2 MUL SWAP2 JUMPDEST SWAP5 SWAP1 SWAP5 SHR SWAP4 DUP1 MUL PUSH2 0xBF2 JUMP JUMPDEST SWAP5 POP SWAP5 SWAP3 POP POP POP JUMP JUMPDEST PUSH1 0x0 PUSH2 0x2E1 PUSH1 0x0 NOT DUP5 DUP5 PUSH1 0x0 DUP3 PUSH2 0xC4E JUMPI POP PUSH1 0x1 PUSH2 0x2E1 JUMP JUMPDEST DUP2 PUSH2 0xC5B JUMPI POP PUSH1 0x0 PUSH2 0x2E1 JUMP JUMPDEST DUP2 PUSH1 0x1 DUP2 EQ PUSH2 0xC71 JUMPI PUSH1 0x2 DUP2 EQ PUSH2 0xC7B JUMPI PUSH2 0xCA8 JUMP JUMPDEST PUSH1 0x1 SWAP2 POP POP PUSH2 0x2E1 JUMP JUMPDEST PUSH1 0xFF DUP5 GT ISZERO PUSH2 0xC8C JUMPI PUSH2 0xC8C PUSH2 0xD98 JUMP JUMPDEST PUSH1 0x1 DUP5 SHL SWAP2 POP DUP5 DUP3 GT ISZERO PUSH2 0xCA2 JUMPI PUSH2 0xCA2 PUSH2 0xD98 JUMP JUMPDEST POP PUSH2 0x2E1 JUMP JUMPDEST POP PUSH1 0x20 DUP4 LT PUSH2 0x133 DUP4 LT AND PUSH1 0x4E DUP5 LT PUSH1 0xB DUP5 LT AND OR ISZERO PUSH2 0xCDB JUMPI POP DUP2 DUP2 EXP DUP4 DUP2 GT ISZERO PUSH2 0xCD6 JUMPI PUSH2 0xCD6 PUSH2 0xD98 JUMP JUMPDEST PUSH2 0x2E1 JUMP JUMPDEST PUSH2 0xCE8 DUP5 DUP5 DUP5 PUSH1 0x1 PUSH2 0xBEF JUMP JUMPDEST DUP1 DUP7 DIV DUP3 GT ISZERO PUSH2 0xCFA JUMPI PUSH2 0xCFA PUSH2 0xD98 JUMP JUMPDEST MUL SWAP5 SWAP4 POP POP POP POP JUMP JUMPDEST PUSH1 0x0 DUP2 PUSH1 0x0 NOT DIV DUP4 GT DUP3 ISZERO ISZERO AND ISZERO PUSH2 0xD1D JUMPI PUSH2 0xD1D PUSH2 0xD98 JUMP JUMPDEST POP MUL SWAP1 JUMP JUMPDEST PUSH1 0x0 DUP1 DUP4 SLT DUP1 ISZERO PUSH1 0x1 PUSH1 0xFF SHL DUP6 ADD DUP5 SLT AND ISZERO PUSH2 0xD40 JUMPI PUSH2 0xD40 PUSH2 0xD98 JUMP JUMPDEST PUSH1 0x1 PUSH1 0x1 PUSH1 0xFF SHL SUB DUP5 ADD DUP4 SGT DUP2 AND ISZERO PUSH2 0xD5B JUMPI PUSH2 0xD5B PUSH2 0xD98 JUMP JUMPDEST POP POP SUB SWAP1 JUMP JUMPDEST PUSH1 0x0 DUP3 DUP3 LT ISZERO PUSH2 0xD73 JUMPI PUSH2 0xD73 PUSH2 0xD98 JUMP JUMPDEST POP SUB SWAP1 JUMP JUMPDEST PUSH1 0x0 DUP3 PUSH2 0xD93 JUMPI PUSH4 0x4E487B71 PUSH1 0xE0 SHL DUP2 MSTORE PUSH1 0x12 PUSH1 0x4 MSTORE PUSH1 0x24 DUP2 REVERT JUMPDEST POP MOD SWAP1 JUMP JUMPDEST PUSH4 0x4E487B71 PUSH1 0xE0 SHL PUSH1 0x0 MSTORE PUSH1 0x11 PUSH1 0x4 MSTORE PUSH1 0x24 PUSH1 0x0 REVERT INVALID PUSH9 0x747470733A2F2F6D69 PUSH15 0x2D6170692E63727970746F636F6D70 PUSH2 0x7265 0x2E PUSH4 0x6F6D2F64 PUSH2 0x7461 0x2F PUSH17 0x726963656D756C746966756C6C3F667379 PUSH14 0x733D455448267473796D733D5553 DIFFICULTY LOG2 PUSH5 0x6970667358 0x22 SLT KECCAK256 PUSH26 0x9DD05FE844994AC8F22E9B70CDD19E9D1664248D6A4857B1C523 0xEC PUSH21 0xCF49A264736F6C6343000800003300000000000000 ",
  "sha1": "8b50759b18aa84715ecd5eadd85803e59e413c54",
  "source": "// SPDX-License-Identifier: MIT\npragma solidity ^0.8.0;\n\nimport \"@chainlink/contracts/src/v0.8/ChainlinkClient.sol\";\n\ncontract APIConsumer is ChainlinkClient {\n    using Chainlink for Chainlink.Request;\n    uint256 public volume;\n    address public oracle;\n    bytes32 public jobId;\n    uint256 public fee;\n\n    event DataFullfilled(uint256 volume);\n\n    constructor(\n        address _oracle,\n        bytes32 _jobId,\n        uint256 _fee,\n        address _link\n    ) {\n        if (_link == address(0)) {\n            setPublicChainlinkToken();\n        } else {\n            setChainlinkToken(_link);\n        }\n        oracle = _oracle;\n        // jobId = stringToBytes32(_jobId);\n        jobId = _jobId;\n        fee = _fee;\n    }\n\n    /**\n     * Create a Chainlink request to retrieve API response, find the target\n     * data, then multiply by 1000000000000000000 (to remove decimal places from data).\n     */\n    function requestVolumeData() public returns (bytes32 requestId) {\n        Chainlink.Request memory request = buildChainlinkRequest(\n            jobId,\n            address(this),\n            this.fulfill.selector\n        );\n\n        // Set the URL to perform the GET request on\n        request.add(\n            \"get\",\n            \"https://min-api.cryptocompare.com/data/pricemultifull?fsyms=ETH&tsyms=USD\"\n        );\n\n        // Set the path to find the desired data in the API response, where the response format is:\n        // {\"RAW\":\n        //   {\"ETH\":\n        //    {\"USD\":\n        //     {\n        //      \"VOLUME24HOUR\": xxx.xxx,\n        //     }\n        //    }\n        //   }\n        //  }\n        request.add(\"path\", \"RAW,ETH,USD,VOLUME24HOUR\");\n\n        // Multiply the result by 1000000000000000000 to remove decimals\n        int timesAmount = 10**18;\n        request.addInt(\"times\", timesAmount);\n\n        // Sends the request\n        return sendChainlinkRequestTo(oracle, request, fee);\n    }\n\n    /**\n     * Receive the response in the form of uint256\n     */\n    function fulfill(bytes32 _requestId, uint256 _volume)\n        public\n        recordChainlinkFulfillment(_requestId)\n    {\n        volume = _volume;\n        emit DataFullfilled(volume);\n    }\n\n    // function stringToBytes32(string memory source) public pure returns (bytes32 result) {\n    //     bytes memory tempEmptyStringTest = bytes(source);\n    //     if (tempEmptyStringTest.length == 0) {\n    //         return 0x0;\n    //     }\n\n    //     assembly {\n    //         result := mload(add(source, 32))\n    //     }\n    // }\n}\n",
  "sourcePath": "contracts/APIConsumer.sol",
  "type": "contract"
}