{
  "abi": [
    {
      "inputs": [
        {
          "internalType": "address",
          "name": "AggregatorAddress",
          "type": "address"
        }
      ],
      "stateMutability": "nonpayable",
      "type": "constructor"
    },
    {
      "inputs": [],
      "name": "getLatestPrice",
      "outputs": [
        {
          "internalType": "int256",
          "name": "",
          "type": "int256"
        }
      ],
      "stateMutability": "view",
      "type": "function"
    }
  ],
  "bytecode": "608060405234801561001057600080fd5b5060405161022838038061022883398101604081905261002f91610054565b600080546001600160a01b0319166001600160a01b0392909216919091179055610082565b600060208284031215610065578081fd5b81516001600160a01b038116811461007b578182fd5b9392505050565b610197806100916000396000f3fe608060405234801561001057600080fd5b506004361061002b5760003560e01c80638e15f47314610030575b600080fd5b61003861004e565b6040516100459190610158565b60405180910390f35b60008060008060008060008054906101000a90046001600160a01b03166001600160a01b031663feaf968c6040518163ffffffff1660e01b815260040160a06040518083038186803b1580156100a357600080fd5b505afa1580156100b7573d6000803e3d6000fd5b505050506040513d601f19601f820116820180604052508101906100db9190610109565b50919850505050505050505090565b805169ffffffffffffffffffff8116811461010457600080fd5b919050565b600080600080600060a08688031215610120578081fd5b610129866100ea565b945060208601519350604086015192506060860151915061014c608087016100ea565b90509295509295909350565b9081526020019056fea26469706673582212206954b55e31981d16df6d36b5957932d2691aadb15092c81ae4b17c0406817ffe64736f6c63430008000033",
  "bytecodeSha1": "95fccfe29a3467488653bf0489edb7be3cfa3266",
  "compiler": {
    "evm_version": "istanbul",
    "optimizer": {
      "enabled": true,
      "runs": 200
    },
    "version": "0.8.0+commit.c7dfd78e"
  },
  "contractName": "PriceFeedConsumer",
  "language": "Solidity",
  "natspec": {
    "kind": "dev",
    "methods": {
      "getLatestPrice()": {
        "notice": "Returns the latest price"
      }
    },
    "version": 1
  },
  "opcodes": "PUSH1 0x80 PUSH1 0x40 MSTORE CALLVALUE DUP1 ISZERO PUSH2 0x10 JUMPI PUSH1 0x0 DUP1 REVERT JUMPDEST POP PUSH1 0x4 CALLDATASIZE LT PUSH2 0x2B JUMPI PUSH1 0x0 CALLDATALOAD PUSH1 0xE0 SHR DUP1 PUSH4 0x8E15F473 EQ PUSH2 0x30 JUMPI JUMPDEST PUSH1 0x0 DUP1 REVERT JUMPDEST PUSH2 0x38 PUSH2 0x4E JUMP JUMPDEST PUSH1 0x40 MLOAD PUSH2 0x45 SWAP2 SWAP1 PUSH2 0x158 JUMP JUMPDEST PUSH1 0x40 MLOAD DUP1 SWAP2 SUB SWAP1 RETURN JUMPDEST PUSH1 0x0 DUP1 PUSH1 0x0 DUP1 PUSH1 0x0 DUP1 PUSH1 0x0 DUP1 SLOAD SWAP1 PUSH2 0x100 EXP SWAP1 DIV PUSH1 0x1 PUSH1 0x1 PUSH1 0xA0 SHL SUB AND PUSH1 0x1 PUSH1 0x1 PUSH1 0xA0 SHL SUB AND PUSH4 0xFEAF968C PUSH1 0x40 MLOAD DUP2 PUSH4 0xFFFFFFFF AND PUSH1 0xE0 SHL DUP2 MSTORE PUSH1 0x4 ADD PUSH1 0xA0 PUSH1 0x40 MLOAD DUP1 DUP4 SUB DUP2 DUP7 DUP1 EXTCODESIZE ISZERO DUP1 ISZERO PUSH2 0xA3 JUMPI PUSH1 0x0 DUP1 REVERT JUMPDEST POP GAS STATICCALL ISZERO DUP1 ISZERO PUSH2 0xB7 JUMPI RETURNDATASIZE PUSH1 0x0 DUP1 RETURNDATACOPY RETURNDATASIZE PUSH1 0x0 REVERT JUMPDEST POP POP POP POP PUSH1 0x40 MLOAD RETURNDATASIZE PUSH1 0x1F NOT PUSH1 0x1F DUP3 ADD AND DUP3 ADD DUP1 PUSH1 0x40 MSTORE POP DUP2 ADD SWAP1 PUSH2 0xDB SWAP2 SWAP1 PUSH2 0x109 JUMP JUMPDEST POP SWAP2 SWAP9 POP POP POP POP POP POP POP POP POP SWAP1 JUMP JUMPDEST DUP1 MLOAD PUSH10 0xFFFFFFFFFFFFFFFFFFFF DUP2 AND DUP2 EQ PUSH2 0x104 JUMPI PUSH1 0x0 DUP1 REVERT JUMPDEST SWAP2 SWAP1 POP JUMP JUMPDEST PUSH1 0x0 DUP1 PUSH1 0x0 DUP1 PUSH1 0x0 PUSH1 0xA0 DUP7 DUP9 SUB SLT ISZERO PUSH2 0x120 JUMPI DUP1 DUP2 REVERT JUMPDEST PUSH2 0x129 DUP7 PUSH2 0xEA JUMP JUMPDEST SWAP5 POP PUSH1 0x20 DUP7 ADD MLOAD SWAP4 POP PUSH1 0x40 DUP7 ADD MLOAD SWAP3 POP PUSH1 0x60 DUP7 ADD MLOAD SWAP2 POP PUSH2 0x14C PUSH1 0x80 DUP8 ADD PUSH2 0xEA JUMP JUMPDEST SWAP1 POP SWAP3 SWAP6 POP SWAP3 SWAP6 SWAP1 SWAP4 POP JUMP JUMPDEST SWAP1 DUP2 MSTORE PUSH1 0x20 ADD SWAP1 JUMP INVALID LOG2 PUSH5 0x6970667358 0x22 SLT KECCAK256 PUSH10 0x54B55E31981D16DF6D36 0xB5 SWAP6 PUSH26 0x32D2691AADB15092C81AE4B17C0406817FFE64736F6C63430008 STOP STOP CALLER ",
  "sha1": "7c874542b13b791d035cb952871e14df63082139",
  "source": "// SPDX-License-Identifier: MIT\npragma solidity ^0.8.0;\n\nimport \"@chainlink/contracts/src/v0.8/interfaces/AggregatorV3Interface.sol\";\n\ncontract PriceFeedConsumer {\n    AggregatorV3Interface internal priceFeed;\n\n    constructor(address AggregatorAddress) {\n        priceFeed = AggregatorV3Interface(AggregatorAddress);\n    }\n\n    /**\n     * Returns the latest price\n     */\n    function getLatestPrice() public view returns (int) {\n        (\n            uint80 roundID,\n            int price,\n            uint startedAt,\n            uint timeStamp,\n            uint80 answeredInRound\n        ) = priceFeed.latestRoundData();\n        return price;\n    }\n}\n",
  "sourcePath": "contracts/PriceFeedConsumer.sol",
  "type": "contract"
}